:020000040800F2
:100000008806002029020008310200083302000897
:10001000350200083702000839020008000000001D
:100020000000000000000000000000003B0200088B
:100030003D020008000000003F02000841020008E5
:10004000430200084302000843020008430200087C
:100050004302000843020008E50200085D040008AE
:10006000430200084302000843020008430200085C
:10007000430200084302000843020008430200084C
:10008000430200084302000843020008430200083C
:10009000430200084302000843020008430200082C
:1000A000430200084302000843020008430200081C
:1000B0004302000843020008B10700084302000899
:1000C00043020008430200084302000843020008FC
:1000D00043020008430200084302000843020008EC
:1000E00043020008430200084302000843020008DC
:1000F00043020008430200084302000843020008CC
:1001000043020008430200084302000843020008BB
:1001100043020008430200084302000843020008AB
:10012000430200084302000843020008430200089B
:10013000430200084302000843020008430200088B
:10014000430200084302000843020008430200087B
:10015000430200084302000843020008430200086B
:10016000430200084302000843020008430200085B
:100170004302000843020008430200080000000098
:10018000430200084302000800F002F800F03CF8C7
:100190000AA090E8000C82448344AAF10107DA45E2
:1001A00001D100F031F8AFF2090EBAE80F0013F0F8
:1001B000010F18BFFB1A43F001031847B0090000F4
:1001C000D0090000103A24BF78C878C1FAD8520785
:1001D00024BF30C830C144BF04680C6070470000C1
:1001E0000023002400250026103A28BF78C1FBD840
:1001F000520728BF30C148BF0B6070471FB500F0E1
:10020000A7FC1FBD10B510BD00F031F81146FFF777
:10021000F5FF00F07DFB00F04FF803B4FFF7F2FFAD
:1002200003BC00F057F80000094880470948004720
:10023000FEE7FEE7FEE7FEE7FEE7FEE7FEE7FEE796
:10024000FEE7FEE704480549054A064B70470000F3
:10025000990700088901000888000020880600200E
:10026000880200208802002070477047704775465A
:1002700000F02CF8AE4605006946534620F0070012
:10028000854618B020B5FFF7DDFFBDE820404FF0F0
:1002900000064FF000074FF000084FF0000BAC468F
:1002A000ACE8C009ACE8C009ACE8C009ACE8C009DA
:1002B00021F007018D46704710B50446AFF300806A
:1002C0002046BDE81040FFF7A8BF00000048704777
:1002D0000800002001491820ABBEFEE726000200FE
:1002E0007047000081B043F61440C4F2010000687A
:1002F000C007002800F0AF80FFE743F61441C4F2C6
:100300000101086840F00100086040F28401C2F277
:10031000000108680130086040F27002C2F2000279
:10032000116840F27400C2F2000001601021C4F2B2
:100330000201096801F003011160006800900328C0
:1003400000F288800099DFE801F00223436440F264
:100350007000C2F20000006802280CD1FFE740F2F2
:100360006801C2F200010A684868013240F10000E9
:100370000A6048600BE040F26801C2F200010A68BE
:100380004868013A60F100000A604860FFE761E0F8
:1003900040F27000C2F20000006860B9FFE740F26E
:1003A0006801C2F200010A684868013240F10000A9
:1003B0000A6048600BE040F26801C2F200010A687E
:1003C0004868013A60F100000A604860FFE741E0D8
:1003D00040F27000C2F20000006803280CD1FFE771
:1003E00040F26801C2F200010A684868013240F137
:1003F00000000A6048600BE040F26801C2F20001B0
:100400000A684868013A60F100000A604860FFE746
:1004100020E040F27000C2F20000006801280CD118
:10042000FFE740F26801C2F200010A684868013241
:1004300040F100000A6048600BE040F26801C2F23F
:1004400000010A684868013A60F100000A604860EB
:10045000FFE7FFE7FFE701B07047000081B043F618
:100460001440C4F2010000688007002840F1AF800A
:10047000FFE743F61441C4F20101086840F00200AE
:10048000086040F28401C2F200010868013008608F
:1004900040F27002C2F20002116840F27400C2F22F
:1004A000000001601021C4F20201096801F003019B
:1004B000116000680090032800F288800099DFE84E
:1004C00001F00223436440F27000C2F200000068B1
:1004D00002280CD1FFE740F26801C2F200010A686D
:1004E0004868013240F100000A6048600BE040F2C9
:1004F0006801C2F200010A684868013A60F1000030
:100500000A604860FFE761E040F27000C2F200005C
:10051000006860B9FFE740F26801C2F200010A68B2
:100520004868013240F100000A6048600BE040F288
:100530006801C2F200010A684868013A60F10000EF
:100540000A604860FFE741E040F27000C2F200003C
:10055000006803280CD1FFE740F26801C2F20001F5
:100560000A684868013240F100000A6048600BE008
:1005700040F26801C2F200010A684868013A60F17D
:1005800000000A604860FFE720E040F27000C2F21D
:100590000000006801280CD1FFE740F26801C2F2B8
:1005A00000010A684868013240F100000A604860B2
:1005B0000BE040F26801C2F200010A684868013AA3
:1005C00060F100000A604860FFE7FFE7FFE701B065
:1005D0007047000080B584B043F64401C4F20201C4
:1005E000086840F48040086043F60801C4F2010145
:1005F0000020086008600860086043F60041C4F20B
:100600000101086840F00300086043F60841C4F2A5
:100610000101086840F00300086043F60C41C4F291
:100620000101086840F003000860062002900121E3
:10063000019100F04BF901990720039000F046F971
:10064000029800F02BF9039800F028F904B080BD5F
:1006500043F63001C4F20201086840F0010008606E
:100660000021C4F20201086820F00F0008600C218C
:10067000C4F20201086840F00500086070470000FD
:1006800082B043F60001C4F20201086840F48030F1
:100690000860FFE743F60000C4F202000068800330
:1006A000002801D4FFE7F5E743F64001C4F2020158
:1006B000086840F08050086047F20001C4F2000171
:1006C000086840F44040086043F60041C4F202016B
:1006D0000091086840F400700860086840F4806089
:1006E0000860086840F480700860086840F0050001
:1006F000086043F60801C4F2020108684FF60F7261
:1007000010400860086840F4A0500860086840F491
:100710000040086043F60401C4F202010191086838
:100720006FF311000860086840F004000860086872
:1007300040F428500860086820F4403008600868D9
:1007400040F48000086043F60001C4F2020108682A
:1007500040F080700860FFE743F60000C4F202003A
:1007600000688001002801D4FFE7F5E743F608019F
:10077000C4F20201086840F002000860FFE743F697
:100780000800C4F20200006800F00C00082801D044
:10079000FFE7F4E702B070474EF68851CEF2000151
:1007A000086840F470000860704700000000000016
:1007B00080B584B040F61001C4F200010020019021
:1007C000086040F28400C2F200000290006841F22A
:1007D000707148430390039840F20001C2F2000197
:1007E00009688900B0FBF1F140F28000C2F200001C
:1007F0000160006800F09AF841EC100B9FED0C1BB3
:1008000053EC112B51EC100B00F0A4F802460198A8
:100810000B46029943EC102B40F27802C2F2000220
:1008200082ED000B086004B080BD00BF00BF00BFB8
:10083000D5EB7BF3E9CEBA3F80B543F64001C4F275
:100840000201086840F00400086040F62801C4F284
:10085000000140F24730086040F62C01C4F200016C
:100860004FF47A70086040F62401C4F200010020C1
:10087000086040F60C01C4F20001086840F0010075
:1008800008601E2000F00AF840F60001C4F20001E2
:10089000086840F00100086080BD000081B08DF85C
:1008A00003009DF9030000280ED4FFE79DF9031013
:1008B00001F01F02012090404A094EF20011CEF2D1
:1008C000000141F82200FFE701B0704782B08DF8C7
:1008D000070000919DF9070000280AD4FFE700985F
:1008E00000019DF907104EF20042CEF2000288543A
:1008F0000BE0009800019DF8071001F00F014EF683
:100900001452CEF200028854FFE702B07047000094
:1009100080B582B000200190FFF7B2FEFFF798FE8D
:10092000FFF78AFFFFF756FEFFE7FEE7B0FA80F316
:1009300010FA03F10AD0C3F11D0303F580634FEAF7
:1009400003524FEA415002EBD12170474FF00000B3
:100950007047000070B5DFF848C11CEA111E1EBFC9
:100960001CEA13159EEA0C0F95EA0C0F00F06F803D
:1009700081EA03044EEAD47EAE4421EA4C1123EA14
:100980004C1341F4801143F48013AEF17F7EA1FB40
:10099000024CA0FB0365361955EB0C05A1FB034C7B
:1009A0004CF10003A0FB021C16EB0C06654153F151
:1009B0000003094218BF46F0010613F4007F0BD173
:1009C0004FEA03314FEA053041EA155140EA16502B
:1009D00034036FF003020AE04FEAC3214FEAC52057
:1009E00041EA555140EA5650F4026FF0020202EB20
:1009F0002E4201EB025585EACE710AD05FEA440C23
:100A000018BF24F0004450F1000041F1000120EA39
:100A1000D47040F2FE7C624500D270BDA84214BF83
:100A20004FF080444FF04044002E08BF0024BEF138
:100A3000806FA8BFA1F1C041BDE8704080F2828004
:100A400001F1C04101F000414FF0000070470CEA95
:100A500013159EEA0C0F18BF95EA0C0F06D081EA19
:100A6000030E4FF000000EF0004170BD00F01CF8C6
:100A70008900013E00F007B800F009B84FEA430CC6
:100A80005FEA5C5C08D081EA030100F05BB84FEAE2
:100A9000410C5FEA5C5CF6D102494FF00000704700
:100AA0000000FF070000F87F0EF1020E2EF0030E8B
:100AB0005EF8046B364205D4012A43EB030515F5B5
:100AC000001F12D8012841EB010C1CF5001F0CD8A7
:100AD0000ED14FEAD17C0CEB4C0C0CF1020C15F54D
:100AE000001F08BF4CEBD37C04E04FF0080C01E082
:100AF0004FEAD37C0CEB4C0526FA05F606F0070608
:100B0000B6F1040C06D20EEB860CBDE870404CF03A
:100B1000010C6047DFE80CF0090B02024FF00041C6
:100B2000A1F500214FF0000070BD194610460128C4
:100B300051EB010418BFD4F5001484BF002001F06C
:100B4000004170BD0808A0F500114FEA310170475F
:100B5000F1EE100A4FF6FF71C0F2C03120EA010039
:100B600040F04070E1EE100A704700008C0B000866
:100B70000000002004000000C4010008900B0008E1
:100B80000800002080060000E0010008600000006E
:0400000508000229C4
:00000001FF
