:020000040800F2
:10000000880600208901000891010008930100087A
:100010009501000897010008990100080000000000
:100020000000000000000000000000009B0100082C
:100030009D010008000000009F010008A1010008C8
:10004000A3010008A3010008A3010008A301000800
:10005000A3010008A3010008A3010008A3010008F0
:10006000A3010008A3010008A3010008A3010008E0
:10007000A3010008A3010008A3010008A3010008D0
:10008000A3010008A3010008A3010008A3010008C0
:10009000A3010008A3010008A3010008450200080D
:1000A000A3010008A3010008A3010008A3010008A0
:1000B000A3010008A30100085D070008A3010008D0
:1000C000A3010008A3010008A3010008A301000880
:1000D000A3010008A3010008A3010008A301000870
:1000E000A3010008A3010008A301000800F002F822
:1000F00000F03AF80AA090E8000C82448344AAF188
:100100000107DA4501D100F02FF8AFF2090EBAE885
:100110000F0013F0010F18BFFB1A43F0010318473B
:10012000C4090000E4090000103A24BF78C878C16F
:10013000FAD8520724BF30C830C144BF04680C60ED
:10014000704700000023002400250026103A28BF35
:1001500078C1FBD8520728BF30C148BF0B60704739
:100160001FB51FBD10B510BD00F031F81146FFF7E7
:10017000F7FF00F099FB00F04FF803B4FFF7F2FF30
:1001800003BC00F057F800000948804709480047C1
:10019000FEE7FEE7FEE7FEE7FEE7FEE7FEE7FEE737
:1001A000FEE7FEE704480549054A064B7047000094
:1001B000F5060008ED0000088800002088060020F1
:1001C00088020020880200207047704770477546FB
:1001D00000F02CF8AE4605006946534620F00700B3
:1001E000854618B020B5FFF7DDFFBDE820404FF091
:1001F00000064FF000074FF000084FF0000BAC4630
:10020000ACE8C009ACE8C009ACE8C009ACE8C0097A
:1002100021F007018D46704710B50446AFF300800A
:100220002046BDE81040FFF7A8BF00000048704717
:100230000800002001491820ABBEFEE7260002009E
:100240007047000082B040F21440C4F20100006820
:100250008006002840F1B080FFE740F21441C4F26C
:100260000101086840F02000086040F28401C2F2F9
:10027000000108680130086040F27002C2F200021A
:10028000116840F27400C2F20000016040F60801FB
:10029000C4F201010968C1F34111116000680190C5
:1002A000032800F288800199DFE801F0022343640B
:1002B00040F27000C2F20000006802280CD1FFE793
:1002C00040F26801C2F200010A684868013240F158
:1002D00000000A6048600BE040F26801C2F20001D1
:1002E0000A684868013A60F100000A604860FFE768
:1002F00061E040F27000C2F20000006860B9FFE700
:1003000040F26801C2F200010A684868013240F117
:1003100000000A6048600BE040F26801C2F2000190
:100320000A684868013A60F100000A604860FFE727
:1003300041E040F27000C2F20000006803280CD1D6
:10034000FFE740F26801C2F200010A684868013222
:1003500040F100000A6048600BE040F26801C2F220
:1003600000010A684868013A60F100000A604860CC
:10037000FFE720E040F27000C2F2000000680128B0
:100380000CD1FFE740F26801C2F200010A68486838
:10039000013240F100000A6048600BE040F2680161
:1003A000C2F200010A684868013A60F100000A6080
:1003B0004860FFE7FFE7FFE740F21440C4F20100A6
:1003C00000684006002840F1B080FFE740F2144189
:1003D000C4F20101086840F04000086040F2840166
:1003E000C2F2000108680130086040F27002C2F2F7
:1003F0000002116840F27400C2F20000016040F691
:100400000801C4F201010968C1F3411111600068DB
:100410000090032800F288800099DFE801F00223B1
:10042000436440F27000C2F20000006802280CD160
:10043000FFE740F26801C2F200010A684868013231
:1004400040F100000A6048600BE040F26801C2F22F
:1004500000010A684868013A60F100000A604860DB
:10046000FFE761E040F27000C2F20000006860B98E
:10047000FFE740F26801C2F200010A6848680132F1
:1004800040F100000A6048600BE040F26801C2F2EF
:1004900000010A684868013A60F100000A6048609B
:1004A000FFE741E040F27000C2F20000006803285C
:1004B0000CD1FFE740F26801C2F200010A68486807
:1004C000013240F100000A6048600BE040F2680130
:1004D000C2F200010A684868013A60F100000A604F
:1004E0004860FFE720E040F27000C2F200000068C0
:1004F00001280CD1FFE740F26801C2F200010A684E
:100500004868013240F100000A6048600BE040F2A8
:100510006801C2F200010A684868013A60F100000F
:100520000A604860FFE7FFE7FFE702B0704700009E
:1005300080B582B041F21801C4F20201086840F0AF
:10054000010008600821C4F2010100200860086071
:100550000860086040F20041C4F20101086840F000
:100560006000086040F20841C4F20101086840F0F0
:100570006000086040F20C41C4F20101086840F0DC
:100580006000086017200190012100F06BF90198CC
:1005900000F050F902B080BD41F21801C4F202012E
:1005A000086840F00400086040F60001C4F2010150
:1005B00044F24440C2F24440086040F60C01C4F2E8
:1005C000010100200860704780B500F001F880BD8F
:1005D00084B000200390029041F20001C4F20201B5
:1005E000086840F480300860FFE741F20000C4F280
:1005F0000200006800F4003002900398013003907C
:10060000FFE702990020019039B9FFE70398B0F5A0
:10061000A06018BF01200190FFE70198C0070028E3
:10062000E3D1FFE741F20000C4F20200006880035A
:10063000002803D5FFE70120029002E0002002908D
:10064000FFE70298012851D1FFE742F20001C4F20E
:100650000201086840F010000860086820F00700F8
:100660000860086840F00200086041F20401C4F22A
:10067000020100910868086008680860086840F492
:1006800080600860086820F47C100860086840F406
:10069000E810086041F20001C4F20201086840F06D
:1006A00080700860FFE741F20000C4F202000068B9
:1006B0008001002801D4FFE7F5E741F20401C4F20C
:1006C0000201086820F003000860086840F002009A
:1006D0000860FFE741F20400C4F20200006800F085
:1006E0000C00082801D0FFE7F4E700E0FFE704B0C2
:1006F0007047000080B541F20002C4F202021068A7
:1007000040F00100106041F20401C4F202010868E7
:100710000023CFF6FF031840086010684FF6FF7300
:10072000CFF6F66318401060106820F48020106047
:10073000086820F4FE00086041F20801C4F20201DA
:100740004FF41F000860FFF73FFF4EF60851CEF24E
:1007500000014FF00060086080BD000080B584B0EB
:1007600040F61001C4F2000100200190088040F220
:100770008400C2F200000290006841F270714843A8
:100780000390039840F20001C2F200010968890059
:10079000B0FBF1F140F28000C2F20000016000689D
:1007A00000F08FF84EF6D532CFF27B324CF6E9638B
:1007B000C3F6BA7300F098F8024601988C46029985
:1007C00040F27803C2F20003C3F804C01A60086064
:1007D00004B080BD80B541F21C01C4F2020108687A
:1007E00040F00400086040F62801C4F2000141F620
:1007F0001F40088040F62C01C4F2000164200880EC
:1008000040F62401C4F200010020088040F60C01EB
:10081000C4F20001088840F0010008801E2000F0AA
:1008200009F840F60001C4F20001088840F0010018
:10083000088080BD81B08DF803009DF90300002879
:100840000ED4FFE79DF9031001F01F020120904034
:100850004A094EF20011CEF2000141F82200FFE7F2
:1008600001B0704782B08DF8070000919DF9070034
:1008700000280AD4FFE7009800019DF907104EF206
:100880000042CEF2000288540BE0009800019DF86F
:10089000071001F00F014EF61452CEF200028854F8
:1008A000FFE702B07047000080B582B000200190E1
:1008B000FFF772FE62B6FFF78DFFFFF739FEFFE725
:1008C000FEE7B0FA80F310FA03F10AD0C3F11D037A
:1008D00003F580634FEA03524FEA415002EBD12106
:1008E00070474FF00000704770B5DFF848C11CEA50
:1008F000111E1EBF1CEA13159EEA0C0F95EA0C0F81
:1009000000F06F8081EA03044EEAD47EAE4421EA0F
:100910004C1123EA4C1341F4801143F48013AEF1DF
:100920007F7EA1FB024CA0FB0365361955EB0C053D
:10093000A1FB034C4CF10003A0FB021C16EB0C06C0
:10094000654153F10003094218BF46F0010613F454
:10095000007F0BD14FEA03314FEA053041EA1551D0
:1009600040EA165034036FF003020AE04FEAC32155
:100970004FEAC52041EA555140EA5650F4026FF063
:10098000020202EB2E4201EB025585EACE710AD03B
:100990005FEA440C18BF24F0004450F1000041F11C
:1009A000000120EAD47040F2FE7C624500D270BDA6
:1009B000A84214BF4FF080444FF04044002E08BFBF
:1009C0000024BEF1806FA8BFA1F1C041BDE8704016
:1009D00080F2828001F1C04101F000414FF000003F
:1009E00070470CEA13159EEA0C0F18BF95EA0C0F1E
:1009F00006D081EA030E4FF000000EF0004170BDFA
:100A000000F01CF88900013E00F007B800F009B8BA
:100A10004FEA430C5FEA5C5C08D081EA030100F016
:100A20005BB84FEA410C5FEA5C5CF6D102494FF0DB
:100A3000000070470000FF070000F87F0EF1020E73
:100A40002EF0030E5EF8046B364205D4012A43EB08
:100A5000030515F5001F12D8012841EB010C1CF508
:100A6000001F0CD80ED14FEAD17C0CEB4C0C0CF1D2
:100A7000020C15F5001F08BF4CEBD37C04E04FF0CF
:100A8000080C01E04FEAD37C0CEB4C0526FA05F686
:100A900006F00706B6F1040C06D20EEB860CBDE894
:100AA00070404CF0010C6047DFE80CF0090B0202CB
:100AB0004FF00041A1F500214FF0000070BD194634
:100AC0001046012851EB010418BFD4F5001484BF6F
:100AD000002001F0004170BD0808A0F500114FEAA8
:100AE00031017047040B00080000002004000000E2
:100AF00028010008080B00080800002080060000FC
:080B0000440100086000000040
:040000050800018965
:00000001FF
